{
    "_format": "hh-sol-artifact-1",
    "contractName": "OfcToken",
    "sourceName": "contracts/OfcToken.sol",
    "abi": [
        {
            "inputs": [
                {
                    "internalType": "string",
                    "name": "tokenName",
                    "type": "string"
                },
                {
                    "internalType": "string",
                    "name": "symbol",
                    "type": "string"
                },
                {
                    "internalType": "address",
                    "name": "_artist",
                    "type": "address"
                },
                {
                    "internalType": "uint256",
                    "name": "_royaltyFee",
                    "type": "uint256"
                }
            ],
            "stateMutability": "nonpayable",
            "type": "constructor"
        },
        {
            "anonymous": false,
            "inputs": [
                {
                    "indexed": true,
                    "internalType": "address",
                    "name": "owner",
                    "type": "address"
                },
                {
                    "indexed": true,
                    "internalType": "address",
                    "name": "approved",
                    "type": "address"
                },
                {
                    "indexed": true,
                    "internalType": "uint256",
                    "name": "tokenId",
                    "type": "uint256"
                }
            ],
            "name": "Approval",
            "type": "event"
        },
        {
            "anonymous": false,
            "inputs": [
                {
                    "indexed": true,
                    "internalType": "address",
                    "name": "owner",
                    "type": "address"
                },
                {
                    "indexed": true,
                    "internalType": "address",
                    "name": "operator",
                    "type": "address"
                },
                {
                    "indexed": false,
                    "internalType": "bool",
                    "name": "approved",
                    "type": "bool"
                }
            ],
            "name": "ApprovalForAll",
            "type": "event"
        },
        {
            "anonymous": false,
            "inputs": [
                {
                    "indexed": true,
                    "internalType": "address",
                    "name": "previousOwner",
                    "type": "address"
                },
                {
                    "indexed": true,
                    "internalType": "address",
                    "name": "newOwner",
                    "type": "address"
                }
            ],
            "name": "OwnershipTransferred",
            "type": "event"
        },
        {
            "anonymous": false,
            "inputs": [
                {
                    "indexed": false,
                    "internalType": "address",
                    "name": "from",
                    "type": "address"
                },
                {
                    "indexed": false,
                    "internalType": "address",
                    "name": "to",
                    "type": "address"
                },
                {
                    "indexed": false,
                    "internalType": "uint256",
                    "name": "value",
                    "type": "uint256"
                }
            ],
            "name": "Sale",
            "type": "event"
        },
        {
            "anonymous": false,
            "inputs": [
                {
                    "indexed": true,
                    "internalType": "address",
                    "name": "from",
                    "type": "address"
                },
                {
                    "indexed": true,
                    "internalType": "address",
                    "name": "to",
                    "type": "address"
                },
                {
                    "indexed": true,
                    "internalType": "uint256",
                    "name": "tokenId",
                    "type": "uint256"
                }
            ],
            "name": "Transfer",
            "type": "event"
        },
        {
            "inputs": [],
            "name": "MAX_PER_WALLET",
            "outputs": [
                {
                    "internalType": "uint256",
                    "name": "",
                    "type": "uint256"
                }
            ],
            "stateMutability": "view",
            "type": "function"
        },
        {
            "inputs": [],
            "name": "MAX_SUPPLY",
            "outputs": [
                {
                    "internalType": "uint256",
                    "name": "",
                    "type": "uint256"
                }
            ],
            "stateMutability": "view",
            "type": "function"
        },
        {
            "inputs": [
                {
                    "internalType": "address",
                    "name": "to",
                    "type": "address"
                },
                {
                    "internalType": "uint256",
                    "name": "tokenId",
                    "type": "uint256"
                }
            ],
            "name": "approve",
            "outputs": [],
            "stateMutability": "nonpayable",
            "type": "function"
        },
        {
            "inputs": [],
            "name": "artist",
            "outputs": [
                {
                    "internalType": "address",
                    "name": "",
                    "type": "address"
                }
            ],
            "stateMutability": "view",
            "type": "function"
        },
        {
            "inputs": [
                {
                    "internalType": "address",
                    "name": "owner",
                    "type": "address"
                }
            ],
            "name": "balanceOf",
            "outputs": [
                {
                    "internalType": "uint256",
                    "name": "",
                    "type": "uint256"
                }
            ],
            "stateMutability": "view",
            "type": "function"
        },
        {
            "inputs": [],
            "name": "developer",
            "outputs": [
                {
                    "internalType": "address",
                    "name": "",
                    "type": "address"
                }
            ],
            "stateMutability": "view",
            "type": "function"
        },
        {
            "inputs": [
                {
                    "internalType": "uint256",
                    "name": "tokenId",
                    "type": "uint256"
                }
            ],
            "name": "getApproved",
            "outputs": [
                {
                    "internalType": "address",
                    "name": "",
                    "type": "address"
                }
            ],
            "stateMutability": "view",
            "type": "function"
        },
        {
            "inputs": [
                {
                    "internalType": "address",
                    "name": "owner",
                    "type": "address"
                },
                {
                    "internalType": "address",
                    "name": "operator",
                    "type": "address"
                }
            ],
            "name": "isApprovedForAll",
            "outputs": [
                {
                    "internalType": "bool",
                    "name": "",
                    "type": "bool"
                }
            ],
            "stateMutability": "view",
            "type": "function"
        },
        {
            "inputs": [
                {
                    "internalType": "string",
                    "name": "metadataURI",
                    "type": "string"
                }
            ],
            "name": "mintToken",
            "outputs": [
                {
                    "internalType": "uint256",
                    "name": "",
                    "type": "uint256"
                }
            ],
            "stateMutability": "payable",
            "type": "function"
        },
        {
            "inputs": [],
            "name": "name",
            "outputs": [
                {
                    "internalType": "string",
                    "name": "",
                    "type": "string"
                }
            ],
            "stateMutability": "view",
            "type": "function"
        },
        {
            "inputs": [],
            "name": "owner",
            "outputs": [
                {
                    "internalType": "address",
                    "name": "",
                    "type": "address"
                }
            ],
            "stateMutability": "view",
            "type": "function"
        },
        {
            "inputs": [
                {
                    "internalType": "uint256",
                    "name": "tokenId",
                    "type": "uint256"
                }
            ],
            "name": "ownerOf",
            "outputs": [
                {
                    "internalType": "address",
                    "name": "",
                    "type": "address"
                }
            ],
            "stateMutability": "view",
            "type": "function"
        },
        {
            "inputs": [],
            "name": "renounceOwnership",
            "outputs": [],
            "stateMutability": "nonpayable",
            "type": "function"
        },
        {
            "inputs": [],
            "name": "royaltyFee",
            "outputs": [
                {
                    "internalType": "uint256",
                    "name": "",
                    "type": "uint256"
                }
            ],
            "stateMutability": "view",
            "type": "function"
        },
        {
            "inputs": [
                {
                    "internalType": "address",
                    "name": "from",
                    "type": "address"
                },
                {
                    "internalType": "address",
                    "name": "to",
                    "type": "address"
                },
                {
                    "internalType": "uint256",
                    "name": "tokenId",
                    "type": "uint256"
                }
            ],
            "name": "safeTransferFrom",
            "outputs": [],
            "stateMutability": "payable",
            "type": "function"
        },
        {
            "inputs": [
                {
                    "internalType": "address",
                    "name": "from",
                    "type": "address"
                },
                {
                    "internalType": "address",
                    "name": "to",
                    "type": "address"
                },
                {
                    "internalType": "uint256",
                    "name": "tokenId",
                    "type": "uint256"
                },
                {
                    "internalType": "bytes",
                    "name": "_data",
                    "type": "bytes"
                }
            ],
            "name": "safeTransferFrom",
            "outputs": [],
            "stateMutability": "payable",
            "type": "function"
        },
        {
            "inputs": [],
            "name": "saleActive",
            "outputs": [
                {
                    "internalType": "bool",
                    "name": "",
                    "type": "bool"
                }
            ],
            "stateMutability": "view",
            "type": "function"
        },
        {
            "inputs": [
                {
                    "internalType": "address",
                    "name": "operator",
                    "type": "address"
                },
                {
                    "internalType": "bool",
                    "name": "approved",
                    "type": "bool"
                }
            ],
            "name": "setApprovalForAll",
            "outputs": [],
            "stateMutability": "nonpayable",
            "type": "function"
        },
        {
            "inputs": [
                {
                    "internalType": "uint256",
                    "name": "_royaltyFee",
                    "type": "uint256"
                }
            ],
            "name": "setRoyaltyFee",
            "outputs": [],
            "stateMutability": "nonpayable",
            "type": "function"
        },
        {
            "inputs": [
                {
                    "internalType": "bytes4",
                    "name": "interfaceId",
                    "type": "bytes4"
                }
            ],
            "name": "supportsInterface",
            "outputs": [
                {
                    "internalType": "bool",
                    "name": "",
                    "type": "bool"
                }
            ],
            "stateMutability": "view",
            "type": "function"
        },
        {
            "inputs": [],
            "name": "symbol",
            "outputs": [
                {
                    "internalType": "string",
                    "name": "",
                    "type": "string"
                }
            ],
            "stateMutability": "view",
            "type": "function"
        },
        {
            "inputs": [],
            "name": "toggleSaleState",
            "outputs": [],
            "stateMutability": "nonpayable",
            "type": "function"
        },
        {
            "inputs": [
                {
                    "internalType": "uint256",
                    "name": "tokenId",
                    "type": "uint256"
                }
            ],
            "name": "tokenURI",
            "outputs": [
                {
                    "internalType": "string",
                    "name": "",
                    "type": "string"
                }
            ],
            "stateMutability": "view",
            "type": "function"
        },
        {
            "inputs": [
                {
                    "internalType": "address",
                    "name": "from",
                    "type": "address"
                },
                {
                    "internalType": "address",
                    "name": "to",
                    "type": "address"
                },
                {
                    "internalType": "uint256",
                    "name": "tokenId",
                    "type": "uint256"
                }
            ],
            "name": "transferFrom",
            "outputs": [],
            "stateMutability": "payable",
            "type": "function"
        },
        {
            "inputs": [
                {
                    "internalType": "address",
                    "name": "newOwner",
                    "type": "address"
                }
            ],
            "name": "transferOwnership",
            "outputs": [],
            "stateMutability": "nonpayable",
            "type": "function"
        }
    ],
    "bytecode": "0x60806040526000600c60006101000a81548160ff0219169083151502179055506000600c60016101000a81548160ff0219169083151502179055503480156200004757600080fd5b5060405162003db538038062003db583398181016040528101906200006d9190620004d0565b8383816000908051906020019062000087929190620001e3565b508060019080519060200190620000a0929190620001e3565b505050620000c3620000b76200011560201b60201c565b6200011d60201b60201c565b81600860006101000a81548173ffffffffffffffffffffffffffffffffffffffff021916908373ffffffffffffffffffffffffffffffffffffffff16021790555080600a8190555050505050620005e5565b600033905090565b6000600760009054906101000a900473ffffffffffffffffffffffffffffffffffffffff16905081600760006101000a81548173ffffffffffffffffffffffffffffffffffffffff021916908373ffffffffffffffffffffffffffffffffffffffff1602179055508173ffffffffffffffffffffffffffffffffffffffff168173ffffffffffffffffffffffffffffffffffffffff167f8be0079c531659141344cd1fd0a4f28419497f9722a3daafe3b4186f6b6457e060405160405180910390a35050565b828054620001f190620005af565b90600052602060002090601f01602090048101928262000215576000855562000261565b82601f106200023057805160ff191683800117855562000261565b8280016001018555821562000261579182015b828111156200026057825182559160200191906001019062000243565b5b50905062000270919062000274565b5090565b5b808211156200028f57600081600090555060010162000275565b5090565b6000604051905090565b600080fd5b600080fd5b600080fd5b600080fd5b6000601f19601f8301169050919050565b7f4e487b7100000000000000000000000000000000000000000000000000000000600052604160045260246000fd5b620002fc82620002b1565b810181811067ffffffffffffffff821117156200031e576200031d620002c2565b5b80604052505050565b60006200033362000293565b9050620003418282620002f1565b919050565b600067ffffffffffffffff821115620003645762000363620002c2565b5b6200036f82620002b1565b9050602081019050919050565b60005b838110156200039c5780820151818401526020810190506200037f565b83811115620003ac576000848401525b50505050565b6000620003c9620003c38462000346565b62000327565b905082815260208101848484011115620003e857620003e7620002ac565b5b620003f58482856200037c565b509392505050565b600082601f830112620004155762000414620002a7565b5b815162000427848260208601620003b2565b91505092915050565b600073ffffffffffffffffffffffffffffffffffffffff82169050919050565b60006200045d8262000430565b9050919050565b6200046f8162000450565b81146200047b57600080fd5b50565b6000815190506200048f8162000464565b92915050565b6000819050919050565b620004aa8162000495565b8114620004b657600080fd5b50565b600081519050620004ca816200049f565b92915050565b60008060008060808587031215620004ed57620004ec6200029d565b5b600085015167ffffffffffffffff8111156200050e576200050d620002a2565b5b6200051c87828801620003fd565b945050602085015167ffffffffffffffff81111562000540576200053f620002a2565b5b6200054e87828801620003fd565b935050604062000561878288016200047e565b92505060606200057487828801620004b9565b91505092959194509250565b7f4e487b7100000000000000000000000000000000000000000000000000000000600052602260045260246000fd5b60006002820490506001821680620005c857607f821691505b60208210811415620005df57620005de62000580565b5b50919050565b6137c080620005f56000396000f3fe6080604052600436106101665760003560e01c806368428a1b116100d1578063b88d4fde1161008a578063ca4b208b11610064578063ca4b208b1461050a578063daaeec8614610535578063e985e9c51461054c578063f2fde38b1461058957610166565b8063b88d4fde14610486578063b8997a97146104a2578063c87b56dd146104cd57610166565b806368428a1b1461038857806370a08231146103b3578063715018a6146103f05780638da5cb5b1461040757806395d89b4114610432578063a22cb4651461045d57610166565b806332cb6b0c1161012357806332cb6b0c1461028057806333eba49a146102ab5780633e4086e5146102db57806342842e0e1461030457806343bc1612146103205780636352211e1461034b57610166565b806301ffc9a71461016b57806306fdde03146101a8578063081812fc146101d3578063095ea7b3146102105780630f2cdd6c1461023957806323b872dd14610264575b600080fd5b34801561017757600080fd5b50610192600480360381019061018d919061245a565b6105b2565b60405161019f91906124a2565b60405180910390f35b3480156101b457600080fd5b506101bd610694565b6040516101ca9190612556565b60405180910390f35b3480156101df57600080fd5b506101fa60048036038101906101f591906125ae565b610726565b604051610207919061261c565b60405180910390f35b34801561021c57600080fd5b5061023760048036038101906102329190612663565b61076c565b005b34801561024557600080fd5b5061024e610884565b60405161025b91906126b2565b60405180910390f35b61027e600480360381019061027991906126cd565b610889565b005b34801561028c57600080fd5b506102956109d9565b6040516102a291906126b2565b60405180910390f35b6102c560048036038101906102c09190612855565b6109df565b6040516102d291906126b2565b60405180910390f35b3480156102e757600080fd5b5061030260048036038101906102fd91906125ae565b610b3d565b005b61031e600480360381019061031991906126cd565b610b4f565b005b34801561032c57600080fd5b50610335610b6f565b604051610342919061261c565b60405180910390f35b34801561035757600080fd5b50610372600480360381019061036d91906125ae565b610b95565b60405161037f919061261c565b60405180910390f35b34801561039457600080fd5b5061039d610c47565b6040516103aa91906124a2565b60405180910390f35b3480156103bf57600080fd5b506103da60048036038101906103d5919061289e565b610c5a565b6040516103e791906126b2565b60405180910390f35b3480156103fc57600080fd5b50610405610d12565b005b34801561041357600080fd5b5061041c610d26565b604051610429919061261c565b60405180910390f35b34801561043e57600080fd5b50610447610d50565b6040516104549190612556565b60405180910390f35b34801561046957600080fd5b50610484600480360381019061047f91906128f7565b610de2565b005b6104a0600480360381019061049b91906129d8565b610df8565b005b3480156104ae57600080fd5b506104b7610f4a565b6040516104c491906126b2565b60405180910390f35b3480156104d957600080fd5b506104f460048036038101906104ef91906125ae565b610f50565b6040516105019190612556565b60405180910390f35b34801561051657600080fd5b5061051f611063565b60405161052c919061261c565b60405180910390f35b34801561054157600080fd5b5061054a611089565b005b34801561055857600080fd5b50610573600480360381019061056e9190612a5b565b611159565b60405161058091906124a2565b60405180910390f35b34801561059557600080fd5b506105b060048036038101906105ab919061289e565b6111ed565b005b60007f80ac58cd000000000000000000000000000000000000000000000000000000007bffffffffffffffffffffffffffffffffffffffffffffffffffffffff1916827bffffffffffffffffffffffffffffffffffffffffffffffffffffffff1916148061067d57507f5b5e139f000000000000000000000000000000000000000000000000000000007bffffffffffffffffffffffffffffffffffffffffffffffffffffffff1916827bffffffffffffffffffffffffffffffffffffffffffffffffffffffff1916145b8061068d575061068c82611271565b5b9050919050565b6060600080546106a390612aca565b80601f01602080910402602001604051908101604052809291908181526020018280546106cf90612aca565b801561071c5780601f106106f15761010080835404028352916020019161071c565b820191906000526020600020905b8154815290600101906020018083116106ff57829003601f168201915b5050505050905090565b6000610731826112db565b6004600083815260200190815260200160002060009054906101000a900473ffffffffffffffffffffffffffffffffffffffff169050919050565b600061077782610b95565b90508073ffffffffffffffffffffffffffffffffffffffff168373ffffffffffffffffffffffffffffffffffffffff1614156107e8576040517f08c379a00000000000000000000000000000000000000000000000000000000081526004016107df90612b6e565b60405180910390fd5b8073ffffffffffffffffffffffffffffffffffffffff16610807611326565b73ffffffffffffffffffffffffffffffffffffffff161480610836575061083581610830611326565b611159565b5b610875576040517f08c379a000000000000000000000000000000000000000000000000000000000815260040161086c90612c00565b60405180910390fd5b61087f838361132e565b505050565b600581565b61089a610894611326565b826113e7565b6108d9576040517f08c379a00000000000000000000000000000000000000000000000000000000081526004016108d090612c92565b60405180910390fd5b60003411156109c9576000612710600a54346108f59190612ce1565b6108ff9190612d6a565b905061090a8161147c565b60008473ffffffffffffffffffffffffffffffffffffffff16823461092f9190612d9b565b60405161093b90612e00565b60006040518083038185875af1925050503d8060008114610978576040519150601f19603f3d011682016040523d82523d6000602084013e61097d565b606091505b505090508061098b57600080fd5b7f3f3483d0995db4c081e0101ef6753bef457833c20605cd871de61dcb48085a9a8585346040516109be93929190612e15565b60405180910390a150505b6109d48383836115c6565b505050565b612b6781565b6000600c60019054906101000a900460ff1615610a31576040517f08c379a0000000000000000000000000000000000000000000000000000000008152600401610a2890612e98565b60405180910390fd5b6001600c60016101000a81548160ff021916908315150217905550600c60009054906101000a900460ff16610a9b576040517f08c379a0000000000000000000000000000000000000000000000000000000008152600401610a9290612f04565b60405180910390fd5b6005610aad610aa8611326565b610c5a565b10610aed576040517f08c379a0000000000000000000000000000000000000000000000000000000008152600401610ae490612f70565b60405180910390fd5b610af7600b611858565b6000610b03600b61186e565b9050610b0f338261187c565b610b19818461189a565b809150506000600c60016101000a81548160ff021916908315150217905550919050565b610b4561190e565b80600a8190555050565b610b6a83838360405180602001604052806000815250610df8565b505050565b600860009054906101000a900473ffffffffffffffffffffffffffffffffffffffff1681565b6000806002600084815260200190815260200160002060009054906101000a900473ffffffffffffffffffffffffffffffffffffffff169050600073ffffffffffffffffffffffffffffffffffffffff168173ffffffffffffffffffffffffffffffffffffffff161415610c3e576040517f08c379a0000000000000000000000000000000000000000000000000000000008152600401610c3590612fdc565b60405180910390fd5b80915050919050565b600c60009054906101000a900460ff1681565b60008073ffffffffffffffffffffffffffffffffffffffff168273ffffffffffffffffffffffffffffffffffffffff161415610ccb576040517f08c379a0000000000000000000000000000000000000000000000000000000008152600401610cc29061306e565b60405180910390fd5b600360008373ffffffffffffffffffffffffffffffffffffffff1673ffffffffffffffffffffffffffffffffffffffff168152602001908152602001600020549050919050565b610d1a61190e565b610d24600061198c565b565b6000600760009054906101000a900473ffffffffffffffffffffffffffffffffffffffff16905090565b606060018054610d5f90612aca565b80601f0160208091040260200160405190810160405280929190818152602001828054610d8b90612aca565b8015610dd85780601f10610dad57610100808354040283529160200191610dd8565b820191906000526020600020905b815481529060010190602001808311610dbb57829003601f168201915b5050505050905090565b610df4610ded611326565b8383611a52565b5050565b610e09610e03611326565b836113e7565b610e48576040517f08c379a0000000000000000000000000000000000000000000000000000000008152600401610e3f90612c92565b60405180910390fd5b6000341115610f38576000612710600a5434610e649190612ce1565b610e6e9190612d6a565b9050610e798161147c565b60008573ffffffffffffffffffffffffffffffffffffffff168234610e9e9190612d9b565b604051610eaa90612e00565b60006040518083038185875af1925050503d8060008114610ee7576040519150601f19603f3d011682016040523d82523d6000602084013e610eec565b606091505b5050905080610efa57600080fd5b7f3f3483d0995db4c081e0101ef6753bef457833c20605cd871de61dcb48085a9a868634604051610f2d93929190612e15565b60405180910390a150505b610f4484848484611bbf565b50505050565b600a5481565b6060610f5b826112db565b6000600660008481526020019081526020016000208054610f7b90612aca565b80601f0160208091040260200160405190810160405280929190818152602001828054610fa790612aca565b8015610ff45780601f10610fc957610100808354040283529160200191610ff4565b820191906000526020600020905b815481529060010190602001808311610fd757829003601f168201915b505050505090506000611005611c1b565b905060008151141561101b57819250505061105e565b6000825111156110505780826040516020016110389291906130ca565b6040516020818303038152906040529250505061105e565b61105984611c58565b925050505b919050565b600960009054906101000a900473ffffffffffffffffffffffffffffffffffffffff1681565b61109161190e565b6110df6040518060400160405280600981526020017f73616c6553746174650000000000000000000000000000000000000000000000815250600c60009054906101000a900460ff16611cc0565b600c60009054906101000a900460ff1615600c60006101000a81548160ff0219169083151502179055506111576040518060400160405280600981526020017f73616c6553746174650000000000000000000000000000000000000000000000815250600c60009054906101000a900460ff16611cc0565b565b6000600560008473ffffffffffffffffffffffffffffffffffffffff1673ffffffffffffffffffffffffffffffffffffffff16815260200190815260200160002060008373ffffffffffffffffffffffffffffffffffffffff1673ffffffffffffffffffffffffffffffffffffffff16815260200190815260200160002060009054906101000a900460ff16905092915050565b6111f561190e565b600073ffffffffffffffffffffffffffffffffffffffff168173ffffffffffffffffffffffffffffffffffffffff161415611265576040517f08c379a000000000000000000000000000000000000000000000000000000000815260040161125c90613160565b60405180910390fd5b61126e8161198c565b50565b60007f01ffc9a7000000000000000000000000000000000000000000000000000000007bffffffffffffffffffffffffffffffffffffffffffffffffffffffff1916827bffffffffffffffffffffffffffffffffffffffffffffffffffffffff1916149050919050565b6112e481611d5c565b611323576040517f08c379a000000000000000000000000000000000000000000000000000000000815260040161131a90612fdc565b60405180910390fd5b50565b600033905090565b816004600083815260200190815260200160002060006101000a81548173ffffffffffffffffffffffffffffffffffffffff021916908373ffffffffffffffffffffffffffffffffffffffff160217905550808273ffffffffffffffffffffffffffffffffffffffff166113a183610b95565b73ffffffffffffffffffffffffffffffffffffffff167f8c5be1e5ebec7d5bd14f71427d1e84f3dd0314c0f7b2291e5b200ac8c7c3b92560405160405180910390a45050565b6000806113f383610b95565b90508073ffffffffffffffffffffffffffffffffffffffff168473ffffffffffffffffffffffffffffffffffffffff16148061143557506114348185611159565b5b8061147357508373ffffffffffffffffffffffffffffffffffffffff1661145b84610726565b73ffffffffffffffffffffffffffffffffffffffff16145b91505092915050565b6000600860009054906101000a900473ffffffffffffffffffffffffffffffffffffffff1673ffffffffffffffffffffffffffffffffffffffff16600a6009846114c69190612ce1565b6114d09190612d6a565b6040516114dc90612e00565b60006040518083038185875af1925050503d8060008114611519576040519150601f19603f3d011682016040523d82523d6000602084013e61151e565b606091505b505090508061152c57600080fd5b6000611536610d26565b73ffffffffffffffffffffffffffffffffffffffff16600a60018561155b9190612ce1565b6115659190612d6a565b60405161157190612e00565b60006040518083038185875af1925050503d80600081146115ae576040519150601f19603f3d011682016040523d82523d6000602084013e6115b3565b606091505b50509050806115c157600080fd5b505050565b8273ffffffffffffffffffffffffffffffffffffffff166115e682610b95565b73ffffffffffffffffffffffffffffffffffffffff161461163c576040517f08c379a0000000000000000000000000000000000000000000000000000000008152600401611633906131f2565b60405180910390fd5b600073ffffffffffffffffffffffffffffffffffffffff168273ffffffffffffffffffffffffffffffffffffffff1614156116ac576040517f08c379a00000000000000000000000000000000000000000000000000000000081526004016116a390613284565b60405180910390fd5b6116b7838383611dc8565b6004600082815260200190815260200160002060006101000a81549073ffffffffffffffffffffffffffffffffffffffff02191690556001600360008573ffffffffffffffffffffffffffffffffffffffff1673ffffffffffffffffffffffffffffffffffffffff168152602001908152602001600020600082825461173d9190612d9b565b925050819055506001600360008473ffffffffffffffffffffffffffffffffffffffff1673ffffffffffffffffffffffffffffffffffffffff168152602001908152602001600020600082825461179491906132a4565b92505081905550816002600083815260200190815260200160002060006101000a81548173ffffffffffffffffffffffffffffffffffffffff021916908373ffffffffffffffffffffffffffffffffffffffff160217905550808273ffffffffffffffffffffffffffffffffffffffff168473ffffffffffffffffffffffffffffffffffffffff167fddf252ad1be2c89b69c2b068fc378daa952ba7f163c4a11628f55a4df523b3ef60405160405180910390a4611853838383611dcd565b505050565b6001816000016000828254019250508190555050565b600081600001549050919050565b611896828260405180602001604052806000815250611dd2565b5050565b6118a382611d5c565b6118e2576040517f08c379a00000000000000000000000000000000000000000000000000000000081526004016118d99061336c565b60405180910390fd5b8060066000848152602001908152602001600020908051906020019061190992919061234b565b505050565b611916611326565b73ffffffffffffffffffffffffffffffffffffffff16611934610d26565b73ffffffffffffffffffffffffffffffffffffffff161461198a576040517f08c379a0000000000000000000000000000000000000000000000000000000008152600401611981906133d8565b60405180910390fd5b565b6000600760009054906101000a900473ffffffffffffffffffffffffffffffffffffffff16905081600760006101000a81548173ffffffffffffffffffffffffffffffffffffffff021916908373ffffffffffffffffffffffffffffffffffffffff1602179055508173ffffffffffffffffffffffffffffffffffffffff168173ffffffffffffffffffffffffffffffffffffffff167f8be0079c531659141344cd1fd0a4f28419497f9722a3daafe3b4186f6b6457e060405160405180910390a35050565b8173ffffffffffffffffffffffffffffffffffffffff168373ffffffffffffffffffffffffffffffffffffffff161415611ac1576040517f08c379a0000000000000000000000000000000000000000000000000000000008152600401611ab890613444565b60405180910390fd5b80600560008573ffffffffffffffffffffffffffffffffffffffff1673ffffffffffffffffffffffffffffffffffffffff16815260200190815260200160002060008473ffffffffffffffffffffffffffffffffffffffff1673ffffffffffffffffffffffffffffffffffffffff16815260200190815260200160002060006101000a81548160ff0219169083151502179055508173ffffffffffffffffffffffffffffffffffffffff168373ffffffffffffffffffffffffffffffffffffffff167f17307eab39ab6107e8899845ad3d59bd9653f200f220920489ca2b5937696c3183604051611bb291906124a2565b60405180910390a3505050565b611bca8484846115c6565b611bd684848484611e2d565b611c15576040517f08c379a0000000000000000000000000000000000000000000000000000000008152600401611c0c906134d6565b60405180910390fd5b50505050565b60606040518060400160405280600781526020017f697066733a2f2f00000000000000000000000000000000000000000000000000815250905090565b6060611c63826112db565b6000611c6d611c1b565b90506000815111611c8d5760405180602001604052806000815250611cb8565b80611c9784611fc4565b604051602001611ca89291906130ca565b6040516020818303038152906040525b915050919050565b611d588282604051602401611cd69291906134f6565b6040516020818303038152906040527fc3b55635000000000000000000000000000000000000000000000000000000007bffffffffffffffffffffffffffffffffffffffffffffffffffffffff19166020820180517bffffffffffffffffffffffffffffffffffffffffffffffffffffffff8381831617835250505050612125565b5050565b60008073ffffffffffffffffffffffffffffffffffffffff166002600084815260200190815260200160002060009054906101000a900473ffffffffffffffffffffffffffffffffffffffff1673ffffffffffffffffffffffffffffffffffffffff1614159050919050565b505050565b505050565b611ddc838361214e565b611de96000848484611e2d565b611e28576040517f08c379a0000000000000000000000000000000000000000000000000000000008152600401611e1f906134d6565b60405180910390fd5b505050565b6000611e4e8473ffffffffffffffffffffffffffffffffffffffff16612328565b15611fb7578373ffffffffffffffffffffffffffffffffffffffff1663150b7a02611e77611326565b8786866040518563ffffffff1660e01b8152600401611e99949392919061357b565b602060405180830381600087803b158015611eb357600080fd5b505af1925050508015611ee457506040513d601f19601f82011682018060405250810190611ee191906135dc565b60015b611f67573d8060008114611f14576040519150601f19603f3d011682016040523d82523d6000602084013e611f19565b606091505b50600081511415611f5f576040517f08c379a0000000000000000000000000000000000000000000000000000000008152600401611f56906134d6565b60405180910390fd5b805181602001fd5b63150b7a0260e01b7bffffffffffffffffffffffffffffffffffffffffffffffffffffffff1916817bffffffffffffffffffffffffffffffffffffffffffffffffffffffff191614915050611fbc565b600190505b949350505050565b6060600082141561200c576040518060400160405280600181526020017f30000000000000000000000000000000000000000000000000000000000000008152509050612120565b600082905060005b6000821461203e57808061202790613609565b915050600a826120379190612d6a565b9150612014565b60008167ffffffffffffffff81111561205a5761205961272a565b5b6040519080825280601f01601f19166020018201604052801561208c5781602001600182028036833780820191505090505b5090505b60008514612119576001826120a59190612d9b565b9150600a856120b49190613652565b60306120c091906132a4565b60f81b8183815181106120d6576120d5613683565b5b60200101907effffffffffffffffffffffffffffffffffffffffffffffffffffffffffffff1916908160001a905350600a856121129190612d6a565b9450612090565b8093505050505b919050565b60008151905060006a636f6e736f6c652e6c6f679050602083016000808483855afa5050505050565b600073ffffffffffffffffffffffffffffffffffffffff168273ffffffffffffffffffffffffffffffffffffffff1614156121be576040517f08c379a00000000000000000000000000000000000000000000000000000000081526004016121b5906136fe565b60405180910390fd5b6121c781611d5c565b15612207576040517f08c379a00000000000000000000000000000000000000000000000000000000081526004016121fe9061376a565b60405180910390fd5b61221360008383611dc8565b6001600360008473ffffffffffffffffffffffffffffffffffffffff1673ffffffffffffffffffffffffffffffffffffffff168152602001908152602001600020600082825461226391906132a4565b92505081905550816002600083815260200190815260200160002060006101000a81548173ffffffffffffffffffffffffffffffffffffffff021916908373ffffffffffffffffffffffffffffffffffffffff160217905550808273ffffffffffffffffffffffffffffffffffffffff16600073ffffffffffffffffffffffffffffffffffffffff167fddf252ad1be2c89b69c2b068fc378daa952ba7f163c4a11628f55a4df523b3ef60405160405180910390a461232460008383611dcd565b5050565b6000808273ffffffffffffffffffffffffffffffffffffffff163b119050919050565b82805461235790612aca565b90600052602060002090601f01602090048101928261237957600085556123c0565b82601f1061239257805160ff19168380011785556123c0565b828001600101855582156123c0579182015b828111156123bf5782518255916020019190600101906123a4565b5b5090506123cd91906123d1565b5090565b5b808211156123ea5760008160009055506001016123d2565b5090565b6000604051905090565b600080fd5b600080fd5b60007fffffffff0000000000000000000000000000000000000000000000000000000082169050919050565b61243781612402565b811461244257600080fd5b50565b6000813590506124548161242e565b92915050565b6000602082840312156124705761246f6123f8565b5b600061247e84828501612445565b91505092915050565b60008115159050919050565b61249c81612487565b82525050565b60006020820190506124b76000830184612493565b92915050565b600081519050919050565b600082825260208201905092915050565b60005b838110156124f75780820151818401526020810190506124dc565b83811115612506576000848401525b50505050565b6000601f19601f8301169050919050565b6000612528826124bd565b61253281856124c8565b93506125428185602086016124d9565b61254b8161250c565b840191505092915050565b60006020820190508181036000830152612570818461251d565b905092915050565b6000819050919050565b61258b81612578565b811461259657600080fd5b50565b6000813590506125a881612582565b92915050565b6000602082840312156125c4576125c36123f8565b5b60006125d284828501612599565b91505092915050565b600073ffffffffffffffffffffffffffffffffffffffff82169050919050565b6000612606826125db565b9050919050565b612616816125fb565b82525050565b6000602082019050612631600083018461260d565b92915050565b612640816125fb565b811461264b57600080fd5b50565b60008135905061265d81612637565b92915050565b6000806040838503121561267a576126796123f8565b5b60006126888582860161264e565b925050602061269985828601612599565b9150509250929050565b6126ac81612578565b82525050565b60006020820190506126c760008301846126a3565b92915050565b6000806000606084860312156126e6576126e56123f8565b5b60006126f48682870161264e565b93505060206127058682870161264e565b925050604061271686828701612599565b9150509250925092565b600080fd5b600080fd5b7f4e487b7100000000000000000000000000000000000000000000000000000000600052604160045260246000fd5b6127628261250c565b810181811067ffffffffffffffff821117156127815761278061272a565b5b80604052505050565b60006127946123ee565b90506127a08282612759565b919050565b600067ffffffffffffffff8211156127c0576127bf61272a565b5b6127c98261250c565b9050602081019050919050565b82818337600083830152505050565b60006127f86127f3846127a5565b61278a565b90508281526020810184848401111561281457612813612725565b5b61281f8482856127d6565b509392505050565b600082601f83011261283c5761283b612720565b5b813561284c8482602086016127e5565b91505092915050565b60006020828403121561286b5761286a6123f8565b5b600082013567ffffffffffffffff811115612889576128886123fd565b5b61289584828501612827565b91505092915050565b6000602082840312156128b4576128b36123f8565b5b60006128c28482850161264e565b91505092915050565b6128d481612487565b81146128df57600080fd5b50565b6000813590506128f1816128cb565b92915050565b6000806040838503121561290e5761290d6123f8565b5b600061291c8582860161264e565b925050602061292d858286016128e2565b9150509250929050565b600067ffffffffffffffff8211156129525761295161272a565b5b61295b8261250c565b9050602081019050919050565b600061297b61297684612937565b61278a565b90508281526020810184848401111561299757612996612725565b5b6129a28482856127d6565b509392505050565b600082601f8301126129bf576129be612720565b5b81356129cf848260208601612968565b91505092915050565b600080600080608085870312156129f2576129f16123f8565b5b6000612a008782880161264e565b9450506020612a118782880161264e565b9350506040612a2287828801612599565b925050606085013567ffffffffffffffff811115612a4357612a426123fd565b5b612a4f878288016129aa565b91505092959194509250565b60008060408385031215612a7257612a716123f8565b5b6000612a808582860161264e565b9250506020612a918582860161264e565b9150509250929050565b7f4e487b7100000000000000000000000000000000000000000000000000000000600052602260045260246000fd5b60006002820490506001821680612ae257607f821691505b60208210811415612af657612af5612a9b565b5b50919050565b7f4552433732313a20617070726f76616c20746f2063757272656e74206f776e6560008201527f7200000000000000000000000000000000000000000000000000000000000000602082015250565b6000612b586021836124c8565b9150612b6382612afc565b604082019050919050565b60006020820190508181036000830152612b8781612b4b565b9050919050565b7f4552433732313a20617070726f76652063616c6c6572206973206e6f7420746f60008201527f6b656e206f776e6572206f7220617070726f76656420666f7220616c6c000000602082015250565b6000612bea603d836124c8565b9150612bf582612b8e565b604082019050919050565b60006020820190508181036000830152612c1981612bdd565b9050919050565b7f4552433732313a207472616e736665722063616c6c6572206973206e6f74206f60008201527f776e6572206f7220617070726f76656400000000000000000000000000000000602082015250565b6000612c7c6030836124c8565b9150612c8782612c20565b604082019050919050565b60006020820190508181036000830152612cab81612c6f565b9050919050565b7f4e487b7100000000000000000000000000000000000000000000000000000000600052601160045260246000fd5b6000612cec82612578565b9150612cf783612578565b9250817fffffffffffffffffffffffffffffffffffffffffffffffffffffffffffffffff0483118215151615612d3057612d2f612cb2565b5b828202905092915050565b7f4e487b7100000000000000000000000000000000000000000000000000000000600052601260045260246000fd5b6000612d7582612578565b9150612d8083612578565b925082612d9057612d8f612d3b565b5b828204905092915050565b6000612da682612578565b9150612db183612578565b925082821015612dc457612dc3612cb2565b5b828203905092915050565b600081905092915050565b50565b6000612dea600083612dcf565b9150612df582612dda565b600082019050919050565b6000612e0b82612ddd565b9150819050919050565b6000606082019050612e2a600083018661260d565b612e37602083018561260d565b612e4460408301846126a3565b949350505050565b7f4e6f2072652d656e7472616e742063616c6c2e00000000000000000000000000600082015250565b6000612e826013836124c8565b9150612e8d82612e4c565b602082019050919050565b60006020820190508181036000830152612eb181612e75565b9050919050565b7f53616c657320697320636c6f73656420617420746865206d6f6d656e742e0000600082015250565b6000612eee601e836124c8565b9150612ef982612eb8565b602082019050919050565b60006020820190508181036000830152612f1d81612ee1565b9050919050565b7f45786365656473206d696e74206c696d69742e00000000000000000000000000600082015250565b6000612f5a6013836124c8565b9150612f6582612f24565b602082019050919050565b60006020820190508181036000830152612f8981612f4d565b9050919050565b7f4552433732313a20696e76616c696420746f6b656e2049440000000000000000600082015250565b6000612fc66018836124c8565b9150612fd182612f90565b602082019050919050565b60006020820190508181036000830152612ff581612fb9565b9050919050565b7f4552433732313a2061646472657373207a65726f206973206e6f74206120766160008201527f6c6964206f776e65720000000000000000000000000000000000000000000000602082015250565b60006130586029836124c8565b915061306382612ffc565b604082019050919050565b600060208201905081810360008301526130878161304b565b9050919050565b600081905092915050565b60006130a4826124bd565b6130ae818561308e565b93506130be8185602086016124d9565b80840191505092915050565b60006130d68285613099565b91506130e28284613099565b91508190509392505050565b7f4f776e61626c653a206e6577206f776e657220697320746865207a65726f206160008201527f6464726573730000000000000000000000000000000000000000000000000000602082015250565b600061314a6026836124c8565b9150613155826130ee565b604082019050919050565b600060208201905081810360008301526131798161313d565b9050919050565b7f4552433732313a207472616e736665722066726f6d20696e636f72726563742060008201527f6f776e6572000000000000000000000000000000000000000000000000000000602082015250565b60006131dc6025836124c8565b91506131e782613180565b604082019050919050565b6000602082019050818103600083015261320b816131cf565b9050919050565b7f4552433732313a207472616e7366657220746f20746865207a65726f2061646460008201527f7265737300000000000000000000000000000000000000000000000000000000602082015250565b600061326e6024836124c8565b915061327982613212565b604082019050919050565b6000602082019050818103600083015261329d81613261565b9050919050565b60006132af82612578565b91506132ba83612578565b9250827fffffffffffffffffffffffffffffffffffffffffffffffffffffffffffffffff038211156132ef576132ee612cb2565b5b828201905092915050565b7f45524337323155524953746f726167653a2055524920736574206f66206e6f6e60008201527f6578697374656e7420746f6b656e000000000000000000000000000000000000602082015250565b6000613356602e836124c8565b9150613361826132fa565b604082019050919050565b6000602082019050818103600083015261338581613349565b9050919050565b7f4f776e61626c653a2063616c6c6572206973206e6f7420746865206f776e6572600082015250565b60006133c26020836124c8565b91506133cd8261338c565b602082019050919050565b600060208201905081810360008301526133f1816133b5565b9050919050565b7f4552433732313a20617070726f766520746f2063616c6c657200000000000000600082015250565b600061342e6019836124c8565b9150613439826133f8565b602082019050919050565b6000602082019050818103600083015261345d81613421565b9050919050565b7f4552433732313a207472616e7366657220746f206e6f6e20455243373231526560008201527f63656976657220696d706c656d656e7465720000000000000000000000000000602082015250565b60006134c06032836124c8565b91506134cb82613464565b604082019050919050565b600060208201905081810360008301526134ef816134b3565b9050919050565b60006040820190508181036000830152613510818561251d565b905061351f6020830184612493565b9392505050565b600081519050919050565b600082825260208201905092915050565b600061354d82613526565b6135578185613531565b93506135678185602086016124d9565b6135708161250c565b840191505092915050565b6000608082019050613590600083018761260d565b61359d602083018661260d565b6135aa60408301856126a3565b81810360608301526135bc8184613542565b905095945050505050565b6000815190506135d68161242e565b92915050565b6000602082840312156135f2576135f16123f8565b5b6000613600848285016135c7565b91505092915050565b600061361482612578565b91507fffffffffffffffffffffffffffffffffffffffffffffffffffffffffffffffff82141561364757613646612cb2565b5b600182019050919050565b600061365d82612578565b915061366883612578565b92508261367857613677612d3b565b5b828206905092915050565b7f4e487b7100000000000000000000000000000000000000000000000000000000600052603260045260246000fd5b7f4552433732313a206d696e7420746f20746865207a65726f2061646472657373600082015250565b60006136e86020836124c8565b91506136f3826136b2565b602082019050919050565b60006020820190508181036000830152613717816136db565b9050919050565b7f4552433732313a20746f6b656e20616c7265616479206d696e74656400000000600082015250565b6000613754601c836124c8565b915061375f8261371e565b602082019050919050565b6000602082019050818103600083015261378381613747565b905091905056fea264697066735822122062df5253786fe742a6d3734f4833eca132524b43d12d194531c33f1b7a7f40e664736f6c63430008090033",
    "linkReferences": {},
    "deployedLinkReferences": {}
}